{
  "contractName": "myToken",
  "abi": [
    {
      "anonymous": false,
      "inputs": [
        {
          "indexed": true,
          "internalType": "address",
          "name": "_owner",
          "type": "address"
        },
        {
          "indexed": true,
          "internalType": "address",
          "name": "_spender",
          "type": "address"
        },
        {
          "indexed": false,
          "internalType": "uint256",
          "name": "_value",
          "type": "uint256"
        }
      ],
      "name": "Approval",
      "type": "event"
    },
    {
      "anonymous": false,
      "inputs": [
        {
          "indexed": true,
          "internalType": "address",
          "name": "_owner",
          "type": "address"
        },
        {
          "indexed": true,
          "internalType": "address",
          "name": "_outerTo",
          "type": "address"
        },
        {
          "indexed": false,
          "internalType": "uint256",
          "name": "_value",
          "type": "uint256"
        },
        {
          "indexed": false,
          "internalType": "address",
          "name": "_twinContract",
          "type": "address"
        }
      ],
      "name": "Burning",
      "type": "event"
    },
    {
      "anonymous": false,
      "inputs": [
        {
          "indexed": true,
          "internalType": "address",
          "name": "_outerFrom",
          "type": "address"
        },
        {
          "indexed": true,
          "internalType": "address",
          "name": "_to",
          "type": "address"
        },
        {
          "indexed": false,
          "internalType": "uint256",
          "name": "_value",
          "type": "uint256"
        },
        {
          "indexed": false,
          "internalType": "address",
          "name": "_twinContract",
          "type": "address"
        }
      ],
      "name": "Minting",
      "type": "event"
    },
    {
      "anonymous": false,
      "inputs": [
        {
          "indexed": true,
          "internalType": "address",
          "name": "_from",
          "type": "address"
        },
        {
          "indexed": true,
          "internalType": "address",
          "name": "_to",
          "type": "address"
        },
        {
          "indexed": false,
          "internalType": "uint256",
          "name": "_value",
          "type": "uint256"
        }
      ],
      "name": "Transfer",
      "type": "event"
    },
    {
      "inputs": [
        {
          "internalType": "address",
          "name": "",
          "type": "address"
        },
        {
          "internalType": "address",
          "name": "",
          "type": "address"
        }
      ],
      "name": "allowing",
      "outputs": [
        {
          "internalType": "uint256",
          "name": "",
          "type": "uint256"
        }
      ],
      "stateMutability": "view",
      "type": "function",
      "constant": true
    },
    {
      "inputs": [
        {
          "internalType": "address",
          "name": "",
          "type": "address"
        }
      ],
      "name": "balanceView",
      "outputs": [
        {
          "internalType": "uint256",
          "name": "",
          "type": "uint256"
        }
      ],
      "stateMutability": "view",
      "type": "function",
      "constant": true
    },
    {
      "inputs": [],
      "name": "decimals",
      "outputs": [
        {
          "internalType": "uint8",
          "name": "",
          "type": "uint8"
        }
      ],
      "stateMutability": "view",
      "type": "function",
      "constant": true
    },
    {
      "inputs": [],
      "name": "name",
      "outputs": [
        {
          "internalType": "string",
          "name": "",
          "type": "string"
        }
      ],
      "stateMutability": "view",
      "type": "function",
      "constant": true
    },
    {
      "inputs": [],
      "name": "standard",
      "outputs": [
        {
          "internalType": "string",
          "name": "",
          "type": "string"
        }
      ],
      "stateMutability": "view",
      "type": "function",
      "constant": true
    },
    {
      "inputs": [],
      "name": "symbol",
      "outputs": [
        {
          "internalType": "string",
          "name": "",
          "type": "string"
        }
      ],
      "stateMutability": "view",
      "type": "function",
      "constant": true
    },
    {
      "inputs": [],
      "name": "totalSupply",
      "outputs": [
        {
          "internalType": "uint256",
          "name": "",
          "type": "uint256"
        }
      ],
      "stateMutability": "view",
      "type": "function",
      "constant": true
    },
    {
      "inputs": [
        {
          "internalType": "uint256",
          "name": "_value",
          "type": "uint256"
        }
      ],
      "name": "initial",
      "outputs": [],
      "stateMutability": "nonpayable",
      "type": "function"
    },
    {
      "inputs": [
        {
          "internalType": "address",
          "name": "_to",
          "type": "address"
        },
        {
          "internalType": "uint256",
          "name": "_value",
          "type": "uint256"
        }
      ],
      "name": "transfer",
      "outputs": [],
      "stateMutability": "nonpayable",
      "type": "function"
    },
    {
      "inputs": [
        {
          "internalType": "address",
          "name": "_spender",
          "type": "address"
        },
        {
          "internalType": "uint256",
          "name": "_value",
          "type": "uint256"
        }
      ],
      "name": "approve",
      "outputs": [],
      "stateMutability": "nonpayable",
      "type": "function"
    },
    {
      "inputs": [
        {
          "internalType": "address",
          "name": "_from",
          "type": "address"
        },
        {
          "internalType": "address",
          "name": "_to",
          "type": "address"
        },
        {
          "internalType": "uint256",
          "name": "_value",
          "type": "uint256"
        }
      ],
      "name": "transferFrom",
      "outputs": [],
      "stateMutability": "nonpayable",
      "type": "function"
    },
    {
      "inputs": [
        {
          "internalType": "address",
          "name": "_owner",
          "type": "address"
        }
      ],
      "name": "balanceOf",
      "outputs": [
        {
          "internalType": "uint256",
          "name": "",
          "type": "uint256"
        }
      ],
      "stateMutability": "view",
      "type": "function",
      "constant": true
    },
    {
      "inputs": [
        {
          "internalType": "address",
          "name": "_owner",
          "type": "address"
        },
        {
          "internalType": "address",
          "name": "_spender",
          "type": "address"
        }
      ],
      "name": "allowance",
      "outputs": [
        {
          "internalType": "uint256",
          "name": "",
          "type": "uint256"
        }
      ],
      "stateMutability": "view",
      "type": "function",
      "constant": true
    },
    {
      "inputs": [
        {
          "internalType": "address",
          "name": "_outerTo",
          "type": "address"
        },
        {
          "internalType": "uint256",
          "name": "_value",
          "type": "uint256"
        },
        {
          "internalType": "address",
          "name": "_contract",
          "type": "address"
        }
      ],
      "name": "burn",
      "outputs": [],
      "stateMutability": "nonpayable",
      "type": "function"
    },
    {
      "inputs": [
        {
          "internalType": "bool",
          "name": "status",
          "type": "bool"
        },
        {
          "internalType": "address",
          "name": "_outerFrom",
          "type": "address"
        },
        {
          "internalType": "address",
          "name": "_to",
          "type": "address"
        },
        {
          "internalType": "uint256",
          "name": "_value",
          "type": "uint256"
        },
        {
          "internalType": "address",
          "name": "_contract",
          "type": "address"
        }
      ],
      "name": "mint",
      "outputs": [],
      "stateMutability": "nonpayable",
      "type": "function"
    }
  ],
  "bytecode": "0x60c0604052600760808190526636bcaa37b5b2b760c91b60a09081526200002a9160009190620000af565b506040805180820190915260038082526226aa2760e91b60209092019182526200005791600191620000af565b5060408051808201909152600c8082526b6d79546f6b656e2076302e3160a01b60209092019182526200008d91600291620000af565b506003805460ff19166012179055348015620000a857600080fd5b5062000192565b828054620000bd9062000155565b90600052602060002090601f016020900481019282620000e157600085556200012c565b82601f10620000fc57805160ff19168380011785556200012c565b828001600101855582156200012c579182015b828111156200012c5782518255916020019190600101906200010f565b506200013a9291506200013e565b5090565b5b808211156200013a57600081556001016200013f565b6002810460018216806200016a57607f821691505b602082108114156200018c57634e487b7160e01b600052602260045260246000fd5b50919050565b610c3c80620001a26000396000f3fe608060405234801561001057600080fd5b50600436106100f55760003560e01c806370a0823111610097578063b8ce670d11610066578063b8ce670d146101c6578063ba43bd47146101d9578063dd62ed3e146101ec578063e810ca98146101ff576100f5565b806370a082311461018557806372babe701461019857806395d89b41146101ab578063a9059cbb146101b3576100f5565b806318160ddd116100d357806318160ddd1461014057806323b872dd14610155578063313ce567146101685780635a3b7e421461017d576100f5565b80630176d39f146100fa57806306fdde031461010f578063095ea7b31461012d575b600080fd5b61010d6101083660046109c1565b610212565b005b6101176102a6565b60405161012491906109d9565b60405180910390f35b61010d61013b3660046108fa565b610334565b6101486103c0565b6040516101249190610b26565b61010d6101633660046108bf565b6103c6565b61017061053a565b6040516101249190610b46565b610117610543565b61014861019336600461086c565b610550565b6101486101a636600461086c565b61056f565b610117610581565b61010d6101c13660046108fa565b61058e565b61010d6101d4366004610923565b61064b565b6101486101e736600461088d565b610717565b6101486101fa36600461088d565b610734565b61010d61020d36600461095e565b61075f565b60048190553360009081526006602052604081208054839290610236908490610b54565b9091555050600580547fffffffffffffffffffffffff000000000000000000000000000000000000000016339081179091556040516000907fddf252ad1be2c89b69c2b068fc378daa952ba7f163c4a11628f55a4df523b3ef9061029b908590610b26565b60405180910390a350565b600080546102b390610b83565b80601f01602080910402602001604051908101604052809291908181526020018280546102df90610b83565b801561032c5780601f106103015761010080835404028352916020019161032c565b820191906000526020600020905b81548152906001019060200180831161030f57829003601f168201915b505050505081565b6005546001600160a01b0390811660009081526007602090815260408083209386168352929052908120805483929061036e908490610b54565b90915550506005546040516001600160a01b038085169216907f8c5be1e5ebec7d5bd14f71427d1e84f3dd0314c0f7b2291e5b200ac8c7c3b925906103b4908590610b26565b60405180910390a35050565b60045481565b6001600160a01b0383166000908152600660205260409020548111156104075760405162461bcd60e51b81526004016103fe90610a81565b60405180910390fd5b6005546001600160a01b0390811660009081526007602090815260408083209387168352929052205481111561044f5760405162461bcd60e51b81526004016103fe90610aef565b6001600160a01b03831660009081526006602052604081208054839290610477908490610b6c565b90915550506001600160a01b038216600090815260066020526040812080548392906104a4908490610b54565b90915550506005546001600160a01b039081166000908152600760209081526040808320938716835292905290812080548392906104e3908490610b6c565b92505081905550816001600160a01b0316836001600160a01b03167fddf252ad1be2c89b69c2b068fc378daa952ba7f163c4a11628f55a4df523b3ef8360405161052d9190610b26565b60405180910390a3505050565b60035460ff1681565b600280546102b390610b83565b6001600160a01b0381166000908152600660205260409020545b919050565b60066020526000908152604090205481565b600180546102b390610b83565b336000908152600660205260409020548111156105bd5760405162461bcd60e51b81526004016103fe90610a81565b33600090815260066020526040812080548392906105dc908490610b6c565b90915550506001600160a01b03821660009081526006602052604081208054839290610609908490610b54565b90915550506040516001600160a01b0383169033907fddf252ad1be2c89b69c2b068fc378daa952ba7f163c4a11628f55a4df523b3ef906103b4908590610b26565b3360009081526006602052604090205482111561067a5760405162461bcd60e51b81526004016103fe90610ab8565b3360009081526006602052604081208054849290610699908490610b6c565b90915550506005546001600160a01b03166000908152600760209081526040808320338452909152812080548492906106d3908490610b6c565b90915550506040516001600160a01b0384169033907fdd64a50f826f34a08405c3adf2abb057b75b3a4807abc51764531fa508b59bd19061052d9086908690610b2f565b600760209081526000928352604080842090915290825290205481565b6001600160a01b03918216600090815260076020908152604080832093909416825291909152205490565b8461077c5760405162461bcd60e51b81526004016103fe90610a4a565b6005546001600160a01b03166000908152600660205260409020548211156107a357600080fd5b6005546001600160a01b0316600090815260066020526040812080548492906107cd908490610b6c565b90915550506001600160a01b038316600090815260066020526040812080548492906107fa908490610b54565b92505081905550826001600160a01b0316846001600160a01b03167f48005756307ca22b0eca6c60e752b91d0e0aa096bf5c1c4ffefd47c92aeb9eb88484604051610846929190610b2f565b60405180910390a35050505050565b80356001600160a01b038116811461056a57600080fd5b60006020828403121561087d578081fd5b61088682610855565b9392505050565b6000806040838503121561089f578081fd5b6108a883610855565b91506108b660208401610855565b90509250929050565b6000806000606084860312156108d3578081fd5b6108dc84610855565b92506108ea60208501610855565b9150604084013590509250925092565b6000806040838503121561090c578182fd5b61091583610855565b946020939093013593505050565b600080600060608486031215610937578283fd5b61094084610855565b92506020840135915061095560408501610855565b90509250925092565b600080600080600060a08688031215610975578081fd5b85358015158114610984578182fd5b945061099260208701610855565b93506109a060408701610855565b9250606086013591506109b560808701610855565b90509295509295909350565b6000602082840312156109d2578081fd5b5035919050565b6000602080835283518082850152825b81811015610a05578581018301518582016040015282016109e9565b81811115610a165783604083870101525b50601f017fffffffffffffffffffffffffffffffffffffffffffffffffffffffffffffffe016929092016040019392505050565b6020808252601e908201527f4163636f75746e206973206e6f7420616c6c6f77656420746f206d696e740000604082015260600190565b60208082526012908201527f42414c414e4345204e4f5420454e4f5547480000000000000000000000000000604082015260600190565b60208082526014908201527f596f75722062616c616e6365206973206c6f7721000000000000000000000000604082015260600190565b60208082526016908201527f5041594d454e54204953204e4f5420414c4c4f57454400000000000000000000604082015260600190565b90815260200190565b9182526001600160a01b0316602082015260400190565b60ff91909116815260200190565b60008219821115610b6757610b67610bd7565b500190565b600082821015610b7e57610b7e610bd7565b500390565b600281046001821680610b9757607f821691505b60208210811415610bd1577f4e487b7100000000000000000000000000000000000000000000000000000000600052602260045260246000fd5b50919050565b7f4e487b7100000000000000000000000000000000000000000000000000000000600052601160045260246000fdfea2646970667358221220cdba338c8ffd0663f7429100c891e5f0880549b6d72862a227e9ddc63e7d8e8464736f6c63430008000033",
  "immutableReferences": {},
  "source": "// SPDX-License-Identifier: MIT\r\n\r\npragma solidity ^0.8.0;\r\n\r\ncontract myToken{\r\n\tstring public name='myToken';\r\n\tstring public symbol='MTN';\r\n\tstring public standard='myToken v0.1';\r\n\tuint8 public decimals=18;\r\n\tuint public totalSupply;\r\n\taddress Owner;\r\n\r\n\tmapping (address => uint) public balanceView;\r\n\tmapping (address => mapping(address => uint)) public allowing;\r\n\r\n\tevent Transfer(address indexed _from, address indexed _to, uint256 _value);\r\n\tevent Approval(address indexed _owner,address indexed _spender ,uint256 _value);\r\n\tevent Burning(address indexed _owner,address indexed _outerTo, uint256 _value, address _twinContract);\r\n\tevent Minting(address indexed _outerFrom,address indexed _to, uint256 _value, address _twinContract);\r\n\r\n\tfunction initial(uint _value) public{\r\n\t\ttotalSupply=_value;\r\n\t\tbalanceView[msg.sender]+=_value;\r\n\t\tOwner=msg.sender;\r\n\t\temit Transfer(0x0000000000000000000000000000000000000000,msg.sender,_value);\r\n\t}\r\n\r\n\tfunction transfer(address _to, uint256 _value) public{\r\n\t\trequire(balanceView[msg.sender]>=_value, 'BALANCE NOT ENOUGH');\r\n\t\tbalanceView[msg.sender]-=_value;\r\n\t\tbalanceView[_to]+=_value;\r\n\t\temit Transfer(msg.sender,_to,_value);\r\n\t}\r\n\r\n\tfunction approve(address _spender,uint256 _value) public{\r\n\t\tallowing[Owner][_spender]+=_value;\r\n\t\temit Approval(Owner,_spender,_value);\r\n\t}\r\n\r\n\tfunction transferFrom(address _from, address _to, uint256 _value) public{\r\n\t\trequire(balanceView[_from]>=_value, 'BALANCE NOT ENOUGH');\r\n\t\trequire(allowing[Owner][_from]>=_value, 'PAYMENT IS NOT ALLOWED');\r\n\r\n\t\tbalanceView[_from]-=_value;\r\n\t\tbalanceView[_to]+=_value;\r\n\r\n\t\tallowing[Owner][_from]-=_value;\r\n\r\n\t\temit Transfer(_from,_to,_value);\r\n\t}\r\n\r\n\tfunction balanceOf(address _owner) public view returns(uint256){\r\n\t\treturn balanceView[_owner];\r\n\t}\r\n\tfunction allowance(address _owner,address _spender) public view returns(uint256){\r\n\t\treturn allowing[_owner][_spender];\r\n\t}\r\n\r\n\tfunction burn(address _outerTo,uint256 _value,address _contract) public{\r\n\t\trequire(balanceView[msg.sender]>=_value,\"Your balance is low!\");\r\n\t\tbalanceView[msg.sender]-=_value;\r\n\t\tallowing[Owner][msg.sender]-=_value;\r\n\t\temit Burning(msg.sender,_outerTo,_value,_contract);\r\n\t}\r\n\r\n\tfunction mint(bool status,address _outerFrom, address _to, uint256 _value, address _contract) public{\r\n\t\trequire(status,\"Accoutn is not allowed to mint\");\r\n\t\trequire(balanceView[Owner]>=_value);\r\n\t\tbalanceView[Owner]-=_value;\r\n\t\tbalanceView[_to]+=_value;\r\n\t\temit Minting(_outerFrom,_to,_value,_contract);\r\n\t}\r\n}",
  "sourcePath": "E:\\Cross-Token\\contracts\\myToken.sol",
  "compiler": {
    "name": "solc",
    "version": "0.8.0+commit.c7dfd78e.Emscripten.clang"
  },
  "schemaVersion": "3.4.4",
  "updatedAt": "2023-03-10T11:53:09.536Z",
  "networkType": "ethereum",
  "devdoc": {
    "kind": "dev",
    "methods": {},
    "version": 1
  },
  "userdoc": {
    "kind": "user",
    "methods": {},
    "version": 1
  }
}